{
  "_format": "hh-sol-artifact-1",
  "contractName": "Domains",
  "sourceName": "contracts/Domains.sol",
  "abi": [
    {
      "inputs": [
        {
          "internalType": "string",
          "name": "_tld",
          "type": "string"
        }
      ],
      "stateMutability": "payable",
      "type": "constructor"
    },
    {
      "inputs": [],
      "name": "AlreadyRegistered",
      "type": "error"
    },
    {
      "inputs": [
        {
          "internalType": "string",
          "name": "name",
          "type": "string"
        }
      ],
      "name": "InvalidName",
      "type": "error"
    },
    {
      "inputs": [],
      "name": "Unauthorized",
      "type": "error"
    },
    {
      "anonymous": false,
      "inputs": [
        {
          "indexed": true,
          "internalType": "address",
          "name": "owner",
          "type": "address"
        },
        {
          "indexed": true,
          "internalType": "address",
          "name": "approved",
          "type": "address"
        },
        {
          "indexed": true,
          "internalType": "uint256",
          "name": "tokenId",
          "type": "uint256"
        }
      ],
      "name": "Approval",
      "type": "event"
    },
    {
      "anonymous": false,
      "inputs": [
        {
          "indexed": true,
          "internalType": "address",
          "name": "owner",
          "type": "address"
        },
        {
          "indexed": true,
          "internalType": "address",
          "name": "operator",
          "type": "address"
        },
        {
          "indexed": false,
          "internalType": "bool",
          "name": "approved",
          "type": "bool"
        }
      ],
      "name": "ApprovalForAll",
      "type": "event"
    },
    {
      "anonymous": false,
      "inputs": [
        {
          "indexed": true,
          "internalType": "address",
          "name": "from",
          "type": "address"
        },
        {
          "indexed": true,
          "internalType": "address",
          "name": "to",
          "type": "address"
        },
        {
          "indexed": true,
          "internalType": "uint256",
          "name": "tokenId",
          "type": "uint256"
        }
      ],
      "name": "Transfer",
      "type": "event"
    },
    {
      "inputs": [
        {
          "internalType": "address",
          "name": "to",
          "type": "address"
        },
        {
          "internalType": "uint256",
          "name": "tokenId",
          "type": "uint256"
        }
      ],
      "name": "approve",
      "outputs": [],
      "stateMutability": "nonpayable",
      "type": "function"
    },
    {
      "inputs": [
        {
          "internalType": "address",
          "name": "owner",
          "type": "address"
        }
      ],
      "name": "balanceOf",
      "outputs": [
        {
          "internalType": "uint256",
          "name": "",
          "type": "uint256"
        }
      ],
      "stateMutability": "view",
      "type": "function"
    },
    {
      "inputs": [
        {
          "internalType": "string",
          "name": "",
          "type": "string"
        }
      ],
      "name": "domains",
      "outputs": [
        {
          "internalType": "address",
          "name": "",
          "type": "address"
        }
      ],
      "stateMutability": "view",
      "type": "function"
    },
    {
      "inputs": [
        {
          "internalType": "string",
          "name": "name",
          "type": "string"
        }
      ],
      "name": "getAddress",
      "outputs": [
        {
          "internalType": "address",
          "name": "",
          "type": "address"
        }
      ],
      "stateMutability": "view",
      "type": "function"
    },
    {
      "inputs": [],
      "name": "getAllNames",
      "outputs": [
        {
          "internalType": "string[]",
          "name": "",
          "type": "string[]"
        }
      ],
      "stateMutability": "view",
      "type": "function"
    },
    {
      "inputs": [
        {
          "internalType": "uint256",
          "name": "tokenId",
          "type": "uint256"
        }
      ],
      "name": "getApproved",
      "outputs": [
        {
          "internalType": "address",
          "name": "",
          "type": "address"
        }
      ],
      "stateMutability": "view",
      "type": "function"
    },
    {
      "inputs": [
        {
          "internalType": "string",
          "name": "name",
          "type": "string"
        }
      ],
      "name": "getRecord",
      "outputs": [
        {
          "internalType": "string",
          "name": "",
          "type": "string"
        }
      ],
      "stateMutability": "view",
      "type": "function"
    },
    {
      "inputs": [
        {
          "internalType": "address",
          "name": "owner",
          "type": "address"
        },
        {
          "internalType": "address",
          "name": "operator",
          "type": "address"
        }
      ],
      "name": "isApprovedForAll",
      "outputs": [
        {
          "internalType": "bool",
          "name": "",
          "type": "bool"
        }
      ],
      "stateMutability": "view",
      "type": "function"
    },
    {
      "inputs": [],
      "name": "isOwner",
      "outputs": [
        {
          "internalType": "bool",
          "name": "",
          "type": "bool"
        }
      ],
      "stateMutability": "view",
      "type": "function"
    },
    {
      "inputs": [],
      "name": "name",
      "outputs": [
        {
          "internalType": "string",
          "name": "",
          "type": "string"
        }
      ],
      "stateMutability": "view",
      "type": "function"
    },
    {
      "inputs": [
        {
          "internalType": "uint256",
          "name": "",
          "type": "uint256"
        }
      ],
      "name": "names",
      "outputs": [
        {
          "internalType": "string",
          "name": "",
          "type": "string"
        }
      ],
      "stateMutability": "view",
      "type": "function"
    },
    {
      "inputs": [],
      "name": "owner",
      "outputs": [
        {
          "internalType": "address payable",
          "name": "",
          "type": "address"
        }
      ],
      "stateMutability": "view",
      "type": "function"
    },
    {
      "inputs": [
        {
          "internalType": "uint256",
          "name": "tokenId",
          "type": "uint256"
        }
      ],
      "name": "ownerOf",
      "outputs": [
        {
          "internalType": "address",
          "name": "",
          "type": "address"
        }
      ],
      "stateMutability": "view",
      "type": "function"
    },
    {
      "inputs": [
        {
          "internalType": "string",
          "name": "name",
          "type": "string"
        }
      ],
      "name": "price",
      "outputs": [
        {
          "internalType": "uint256",
          "name": "",
          "type": "uint256"
        }
      ],
      "stateMutability": "pure",
      "type": "function"
    },
    {
      "inputs": [
        {
          "internalType": "string",
          "name": "",
          "type": "string"
        }
      ],
      "name": "records",
      "outputs": [
        {
          "internalType": "string",
          "name": "",
          "type": "string"
        }
      ],
      "stateMutability": "view",
      "type": "function"
    },
    {
      "inputs": [
        {
          "internalType": "string",
          "name": "name",
          "type": "string"
        }
      ],
      "name": "register",
      "outputs": [],
      "stateMutability": "payable",
      "type": "function"
    },
    {
      "inputs": [
        {
          "internalType": "address",
          "name": "from",
          "type": "address"
        },
        {
          "internalType": "address",
          "name": "to",
          "type": "address"
        },
        {
          "internalType": "uint256",
          "name": "tokenId",
          "type": "uint256"
        }
      ],
      "name": "safeTransferFrom",
      "outputs": [],
      "stateMutability": "nonpayable",
      "type": "function"
    },
    {
      "inputs": [
        {
          "internalType": "address",
          "name": "from",
          "type": "address"
        },
        {
          "internalType": "address",
          "name": "to",
          "type": "address"
        },
        {
          "internalType": "uint256",
          "name": "tokenId",
          "type": "uint256"
        },
        {
          "internalType": "bytes",
          "name": "data",
          "type": "bytes"
        }
      ],
      "name": "safeTransferFrom",
      "outputs": [],
      "stateMutability": "nonpayable",
      "type": "function"
    },
    {
      "inputs": [
        {
          "internalType": "address",
          "name": "operator",
          "type": "address"
        },
        {
          "internalType": "bool",
          "name": "approved",
          "type": "bool"
        }
      ],
      "name": "setApprovalForAll",
      "outputs": [],
      "stateMutability": "nonpayable",
      "type": "function"
    },
    {
      "inputs": [
        {
          "internalType": "string",
          "name": "name",
          "type": "string"
        },
        {
          "internalType": "string",
          "name": "record",
          "type": "string"
        }
      ],
      "name": "setRecord",
      "outputs": [],
      "stateMutability": "nonpayable",
      "type": "function"
    },
    {
      "inputs": [
        {
          "internalType": "bytes4",
          "name": "interfaceId",
          "type": "bytes4"
        }
      ],
      "name": "supportsInterface",
      "outputs": [
        {
          "internalType": "bool",
          "name": "",
          "type": "bool"
        }
      ],
      "stateMutability": "view",
      "type": "function"
    },
    {
      "inputs": [],
      "name": "symbol",
      "outputs": [
        {
          "internalType": "string",
          "name": "",
          "type": "string"
        }
      ],
      "stateMutability": "view",
      "type": "function"
    },
    {
      "inputs": [],
      "name": "tld",
      "outputs": [
        {
          "internalType": "string",
          "name": "",
          "type": "string"
        }
      ],
      "stateMutability": "view",
      "type": "function"
    },
    {
      "inputs": [
        {
          "internalType": "uint256",
          "name": "tokenId",
          "type": "uint256"
        }
      ],
      "name": "tokenURI",
      "outputs": [
        {
          "internalType": "string",
          "name": "",
          "type": "string"
        }
      ],
      "stateMutability": "view",
      "type": "function"
    },
    {
      "inputs": [
        {
          "internalType": "address",
          "name": "from",
          "type": "address"
        },
        {
          "internalType": "address",
          "name": "to",
          "type": "address"
        },
        {
          "internalType": "uint256",
          "name": "tokenId",
          "type": "uint256"
        }
      ],
      "name": "transferFrom",
      "outputs": [],
      "stateMutability": "nonpayable",
      "type": "function"
    },
    {
      "inputs": [
        {
          "internalType": "string",
          "name": "name",
          "type": "string"
        }
      ],
      "name": "valid",
      "outputs": [
        {
          "internalType": "bool",
          "name": "",
          "type": "bool"
        }
      ],
      "stateMutability": "pure",
      "type": "function"
    },
    {
      "inputs": [],
      "name": "withdraw",
      "outputs": [],
      "stateMutability": "nonpayable",
      "type": "function"
    }
  ],
  "bytecode": "0x6080604052604051806108a0016040528061086b81526020016200549b61086b9139600a9081620000319190620005b1565b506040518060400160405280600d81526020017f3c2f746578743e3c2f7376673e00000000000000000000000000000000000000815250600b9081620000789190620005b1565b5060405162005d0638038062005d0683398181016040528101906200009e9190620007fc565b6040518060400160405280601181526020017f54524f4e204e616d6520536572766963650000000000000000000000000000008152506040518060400160405280600481526020017f54524f4e0000000000000000000000000000000000000000000000000000000081525081600090816200011b9190620005b1565b5080600190816200012d9190620005b1565b50505033600860006101000a81548173ffffffffffffffffffffffffffffffffffffffff021916908373ffffffffffffffffffffffffffffffffffffffff1602179055508060099081620001829190620005b1565b50620002616040518060400160405280601881526020017f2573206e616d652073657276696365206465706c6f796564000000000000000081525060098054620001cc90620003a0565b80601f0160208091040260200160405190810160405280929190818152602001828054620001fa90620003a0565b80156200024b5780601f106200021f576101008083540402835291602001916200024b565b820191906000526020600020905b8154815290600101906020018083116200022d57829003601f168201915b50505050506200026860201b62001b4c1760201c565b50620008da565b6200030a8282604051602401620002819291906200089f565b6040516020818303038152906040527f4b5c4277000000000000000000000000000000000000000000000000000000007bffffffffffffffffffffffffffffffffffffffffffffffffffffffff19166020820180517bffffffffffffffffffffffffffffffffffffffffffffffffffffffff83818316178352505050506200030e60201b60201c565b5050565b60008151905060006a636f6e736f6c652e6c6f679050602083016000808483855afa5050505050565b600081519050919050565b7f4e487b7100000000000000000000000000000000000000000000000000000000600052604160045260246000fd5b7f4e487b7100000000000000000000000000000000000000000000000000000000600052602260045260246000fd5b60006002820490506001821680620003b957607f821691505b602082108103620003cf57620003ce62000371565b5b50919050565b60008190508160005260206000209050919050565b60006020601f8301049050919050565b600082821b905092915050565b600060088302620004397fffffffffffffffffffffffffffffffffffffffffffffffffffffffffffffffff82620003fa565b620004458683620003fa565b95508019841693508086168417925050509392505050565b6000819050919050565b6000819050919050565b6000620004926200048c62000486846200045d565b62000467565b6200045d565b9050919050565b6000819050919050565b620004ae8362000471565b620004c6620004bd8262000499565b84845462000407565b825550505050565b600090565b620004dd620004ce565b620004ea818484620004a3565b505050565b5b81811015620005125762000506600082620004d3565b600181019050620004f0565b5050565b601f82111562000561576200052b81620003d5565b6200053684620003ea565b8101602085101562000546578190505b6200055e6200055585620003ea565b830182620004ef565b50505b505050565b600082821c905092915050565b6000620005866000198460080262000566565b1980831691505092915050565b6000620005a1838362000573565b9150826002028217905092915050565b620005bc8262000337565b67ffffffffffffffff811115620005d857620005d762000342565b5b620005e48254620003a0565b620005f182828562000516565b600060209050601f83116001811462000629576000841562000614578287015190505b62000620858262000593565b86555062000690565b601f1984166200063986620003d5565b60005b8281101562000663578489015182556001820191506020850194506020810190506200063c565b868310156200068357848901516200067f601f89168262000573565b8355505b6001600288020188555050505b505050505050565b6000604051905090565b600080fd5b600080fd5b600080fd5b600080fd5b6000601f19601f8301169050919050565b620006d282620006b6565b810181811067ffffffffffffffff82111715620006f457620006f362000342565b5b80604052505050565b60006200070962000698565b9050620007178282620006c7565b919050565b600067ffffffffffffffff8211156200073a576200073962000342565b5b6200074582620006b6565b9050602081019050919050565b60005b838110156200077257808201518184015260208101905062000755565b60008484015250505050565b6000620007956200078f846200071c565b620006fd565b905082815260208101848484011115620007b457620007b3620006b1565b5b620007c184828562000752565b509392505050565b600082601f830112620007e157620007e0620006ac565b5b8151620007f38482602086016200077e565b91505092915050565b600060208284031215620008155762000814620006a2565b5b600082015167ffffffffffffffff811115620008365762000835620006a7565b5b6200084484828501620007c9565b91505092915050565b600082825260208201905092915050565b60006200086b8262000337565b6200087781856200084d565b93506200088981856020860162000752565b6200089481620006b6565b840191505092915050565b60006040820190508181036000830152620008bb81856200085e565b90508181036020830152620008d181846200085e565b90509392505050565b614bb180620008ea6000396000f3fe60806040526004361061019c5760003560e01c806370a08231116100ec578063bf40fac11161008a578063e985e9c511610064578063e985e9c514610624578063f2c298be14610661578063fb825e5f1461067d578063fe2c6198146106a85761019c565b8063bf40fac114610581578063c1880a98146105be578063c87b56dd146105e75761019c565b806395d89b41116100c657806395d89b41146104c75780639791c097146104f2578063a22cb4651461052f578063b88d4fde146105585761019c565b806370a08231146104345780638da5cb5b146104715780638f32d59b1461049c5761019c565b8063264492351161015957806342842e0e1161013357806342842e0e146103545780634622ab031461037d578063541e771d146103ba5780636352211e146103f75761019c565b806326449235146102d55780632d551432146103125780633ccfd60b1461033d5761019c565b806301ffc9a7146101a157806306fdde03146101de578063081812fc14610209578063095ea7b31461024657806311dd88451461026f57806323b872dd146102ac575b600080fd5b3480156101ad57600080fd5b506101c860048036038101906101c39190612e8a565b6106e5565b6040516101d59190612ed2565b60405180910390f35b3480156101ea57600080fd5b506101f36107c7565b6040516102009190612f7d565b60405180910390f35b34801561021557600080fd5b50610230600480360381019061022b9190612fd5565b610859565b60405161023d9190613043565b60405180910390f35b34801561025257600080fd5b5061026d6004803603810190610268919061308a565b61089f565b005b34801561027b57600080fd5b506102966004803603810190610291919061312f565b6109b6565b6040516102a39190612f7d565b60405180910390f35b3480156102b857600080fd5b506102d360048036038101906102ce919061317c565b610a69565b005b3480156102e157600080fd5b506102fc60048036038101906102f791906132ff565b610ac9565b6040516103099190613043565b60405180910390f35b34801561031e57600080fd5b50610327610b12565b6040516103349190612f7d565b60405180910390f35b34801561034957600080fd5b50610352610ba0565b005b34801561036057600080fd5b5061037b6004803603810190610376919061317c565b610c66565b005b34801561038957600080fd5b506103a4600480360381019061039f9190612fd5565b610c86565b6040516103b19190612f7d565b60405180910390f35b3480156103c657600080fd5b506103e160048036038101906103dc91906132ff565b610d26565b6040516103ee9190612f7d565b60405180910390f35b34801561040357600080fd5b5061041e60048036038101906104199190612fd5565b610ddc565b60405161042b9190613043565b60405180910390f35b34801561044057600080fd5b5061045b60048036038101906104569190613348565b610e8d565b6040516104689190613384565b60405180910390f35b34801561047d57600080fd5b50610486610f44565b60405161049391906133c0565b60405180910390f35b3480156104a857600080fd5b506104b1610f6a565b6040516104be9190612ed2565b60405180910390f35b3480156104d357600080fd5b506104dc610fc2565b6040516104e99190612f7d565b60405180910390f35b3480156104fe57600080fd5b506105196004803603810190610514919061312f565b611054565b6040516105269190612ed2565b60405180910390f35b34801561053b57600080fd5b5061055660048036038101906105519190613407565b611108565b005b34801561056457600080fd5b5061057f600480360381019061057a91906134e8565b61111e565b005b34801561058d57600080fd5b506105a860048036038101906105a3919061312f565b611180565b6040516105b59190613043565b60405180910390f35b3480156105ca57600080fd5b506105e560048036038101906105e0919061356b565b6111cb565b005b3480156105f357600080fd5b5061060e60048036038101906106099190612fd5565b6112a6565b60405161061b9190612f7d565b60405180910390f35b34801561063057600080fd5b5061064b600480360381019061064691906135ec565b6113b8565b6040516106589190612ed2565b60405180910390f35b61067b6004803603810190610676919061312f565b61144c565b005b34801561068957600080fd5b506106926118ca565b60405161069f9190613738565b60405180910390f35b3480156106b457600080fd5b506106cf60048036038101906106ca919061312f565b611aa8565b6040516106dc9190613384565b60405180910390f35b60007f80ac58cd000000000000000000000000000000000000000000000000000000007bffffffffffffffffffffffffffffffffffffffffffffffffffffffff1916827bffffffffffffffffffffffffffffffffffffffffffffffffffffffff191614806107b057507f5b5e139f000000000000000000000000000000000000000000000000000000007bffffffffffffffffffffffffffffffffffffffffffffffffffffffff1916827bffffffffffffffffffffffffffffffffffffffffffffffffffffffff1916145b806107c057506107bf82611be8565b5b9050919050565b6060600080546107d690613789565b80601f016020809104026020016040519081016040528092919081815260200182805461080290613789565b801561084f5780601f106108245761010080835404028352916020019161084f565b820191906000526020600020905b81548152906001019060200180831161083257829003601f168201915b5050505050905090565b600061086482611c52565b6004600083815260200190815260200160002060009054906101000a900473ffffffffffffffffffffffffffffffffffffffff169050919050565b60006108aa82610ddc565b90508073ffffffffffffffffffffffffffffffffffffffff168373ffffffffffffffffffffffffffffffffffffffff160361091a576040517f08c379a00000000000000000000000000000000000000000000000000000000081526004016109119061382c565b60405180910390fd5b8073ffffffffffffffffffffffffffffffffffffffff16610939611c9d565b73ffffffffffffffffffffffffffffffffffffffff161480610968575061096781610962611c9d565b6113b8565b5b6109a7576040517f08c379a000000000000000000000000000000000000000000000000000000000815260040161099e906138be565b60405180910390fd5b6109b18383611ca5565b505050565b6060600d83836040516109ca92919061390e565b908152602001604051809103902080546109e390613789565b80601f0160208091040260200160405190810160405280929190818152602001828054610a0f90613789565b8015610a5c5780601f10610a3157610100808354040283529160200191610a5c565b820191906000526020600020905b815481529060010190602001808311610a3f57829003601f168201915b5050505050905092915050565b610a7a610a74611c9d565b82611d5e565b610ab9576040517f08c379a0000000000000000000000000000000000000000000000000000000008152600401610ab090613999565b60405180910390fd5b610ac4838383611df3565b505050565b600c818051602081018201805184825260208301602085012081835280955050505050506000915054906101000a900473ffffffffffffffffffffffffffffffffffffffff1681565b60098054610b1f90613789565b80601f0160208091040260200160405190810160405280929190818152602001828054610b4b90613789565b8015610b985780601f10610b6d57610100808354040283529160200191610b98565b820191906000526020600020905b815481529060010190602001808311610b7b57829003601f168201915b505050505081565b610ba8610f6a565b610bb157600080fd5b600047905060003373ffffffffffffffffffffffffffffffffffffffff1682604051610bdc906139ea565b60006040518083038185875af1925050503d8060008114610c19576040519150601f19603f3d011682016040523d82523d6000602084013e610c1e565b606091505b5050905080610c62576040517f08c379a0000000000000000000000000000000000000000000000000000000008152600401610c5990613a4b565b60405180910390fd5b5050565b610c818383836040518060200160405280600081525061111e565b505050565b600e6020528060005260406000206000915090508054610ca590613789565b80601f0160208091040260200160405190810160405280929190818152602001828054610cd190613789565b8015610d1e5780601f10610cf357610100808354040283529160200191610d1e565b820191906000526020600020905b815481529060010190602001808311610d0157829003601f168201915b505050505081565b600d818051602081018201805184825260208301602085012081835280955050505050506000915090508054610d5b90613789565b80601f0160208091040260200160405190810160405280929190818152602001828054610d8790613789565b8015610dd45780601f10610da957610100808354040283529160200191610dd4565b820191906000526020600020905b815481529060010190602001808311610db757829003601f168201915b505050505081565b6000806002600084815260200190815260200160002060009054906101000a900473ffffffffffffffffffffffffffffffffffffffff169050600073ffffffffffffffffffffffffffffffffffffffff168173ffffffffffffffffffffffffffffffffffffffff1603610e84576040517f08c379a0000000000000000000000000000000000000000000000000000000008152600401610e7b90613ab7565b60405180910390fd5b80915050919050565b60008073ffffffffffffffffffffffffffffffffffffffff168273ffffffffffffffffffffffffffffffffffffffff1603610efd576040517f08c379a0000000000000000000000000000000000000000000000000000000008152600401610ef490613b49565b60405180910390fd5b600360008373ffffffffffffffffffffffffffffffffffffffff1673ffffffffffffffffffffffffffffffffffffffff168152602001908152602001600020549050919050565b600860009054906101000a900473ffffffffffffffffffffffffffffffffffffffff1681565b6000600860009054906101000a900473ffffffffffffffffffffffffffffffffffffffff1673ffffffffffffffffffffffffffffffffffffffff163373ffffffffffffffffffffffffffffffffffffffff1614905090565b606060018054610fd190613789565b80601f0160208091040260200160405190810160405280929190818152602001828054610ffd90613789565b801561104a5780601f1061101f5761010080835404028352916020019161104a565b820191906000526020600020905b81548152906001019060200180831161102d57829003601f168201915b5050505050905090565b600060036110a584848080601f016020809104026020016040519081016040528093929190818152602001838380828437600081840152601f19601f82011690508083019250505050505050612059565b101580156111005750600a6110fd84848080601f016020809104026020016040519081016040528093929190818152602001838380828437600081840152601f19601f82011690508083019250505050505050612059565b11155b905092915050565b61111a611113611c9d565b838361220e565b5050565b61112f611129611c9d565b83611d5e565b61116e576040517f08c379a000000000000000000000000000000000000000000000000000000000815260040161116590613999565b60405180910390fd5b61117a8484848461237a565b50505050565b6000600c838360405161119492919061390e565b908152602001604051809103902060009054906101000a900473ffffffffffffffffffffffffffffffffffffffff16905092915050565b600c84846040516111dd92919061390e565b908152602001604051809103902060009054906101000a900473ffffffffffffffffffffffffffffffffffffffff1673ffffffffffffffffffffffffffffffffffffffff163373ffffffffffffffffffffffffffffffffffffffff1614611270576040517f82b4290000000000000000000000000000000000000000000000000000000000815260040160405180910390fd5b8181600d868660405161128492919061390e565b9081526020016040518091039020918261129f929190613d20565b5050505050565b60606112b182611c52565b60006006600084815260200190815260200160002080546112d190613789565b80601f01602080910402602001604051908101604052809291908181526020018280546112fd90613789565b801561134a5780601f1061131f5761010080835404028352916020019161134a565b820191906000526020600020905b81548152906001019060200180831161132d57829003601f168201915b50505050509050600061135b6123d6565b905060008151036113705781925050506113b3565b6000825111156113a557808260405160200161138d929190613e21565b604051602081830303815290604052925050506113b3565b6113ae846123ed565b925050505b919050565b6000600560008473ffffffffffffffffffffffffffffffffffffffff1673ffffffffffffffffffffffffffffffffffffffff16815260200190815260200160002060008373ffffffffffffffffffffffffffffffffffffffff1673ffffffffffffffffffffffffffffffffffffffff16815260200190815260200160002060009054906101000a900460ff16905092915050565b600073ffffffffffffffffffffffffffffffffffffffff16600c838360405161147692919061390e565b908152602001604051809103902060009054906101000a900473ffffffffffffffffffffffffffffffffffffffff1673ffffffffffffffffffffffffffffffffffffffff16146114f2576040517f3a81d6fc00000000000000000000000000000000000000000000000000000000815260040160405180910390fd5b6114fc8282611054565b61153f5781816040517f7f19f48d000000000000000000000000000000000000000000000000000000008152600401611536929190613e72565b60405180910390fd5b600061154b8383611aa8565b905080341015611590576040517f08c379a000000000000000000000000000000000000000000000000000000000815260040161158790613f08565b60405180910390fd5b6000838360096040516020016115a893929190613ff7565b60405160208183030381529060405290506000600a82600b6040516020016115d293929190614028565b604051602081830303815290604052905060006115ef6007612455565b9050600061164087878080601f016020809104026020016040519081016040528093929190818152602001838380828437600081840152601f19601f82011690508083019250505050505050612059565b9050600061164d82612463565b9050611741604051806060016040528060318152602001614ad26031913989898080601f016020809104026020016040519081016040528093929190818152602001838380828437600081840152601f19601f82011690508083019250505050505050600980546116bd90613789565b80601f01602080910402602001604051908101604052809291908181526020018280546116e990613789565b80156117365780601f1061170b57610100808354040283529160200191611736565b820191906000526020600020905b81548152906001019060200180831161171957829003601f168201915b5050505050866125c3565b60006117778661175087612665565b84604051602001611763939291906141d5565b604051602081830303815290604052612665565b905060008160405160200161178c919061427e565b60405160208183030381529060405290506117be604051806060016040528060398152602001614a99603991396127c8565b6117fd6040518060400160405280600e81526020017f46696e616c20746f6b656e55524900000000000000000000000000000000000081525082611b4c565b61181e604051806060016040528060398152602001614b03603991396127c8565b6118283386612861565b611832858261287f565b33600c8b8b60405161184592919061390e565b908152602001604051809103902060006101000a81548173ffffffffffffffffffffffffffffffffffffffff021916908373ffffffffffffffffffffffffffffffffffffffff1602179055508989600e600088815260200190815260200160002091826118b3929190613d20565b506118be60076128ec565b50505050505050505050565b606061190a6040518060400160405280601f81526020017f47657474696e6720616c6c206e616d65732066726f6d20636f6e7472616374008152506127c8565b60006119166007612455565b67ffffffffffffffff81111561192f5761192e6131d4565b5b60405190808252806020026020018201604052801561196257816020015b606081526020019060019003908161194d5790505b50905060005b6119726007612455565b811015611aa057600e6000828152602001908152602001600020805461199790613789565b80601f01602080910402602001604051908101604052809291908181526020018280546119c390613789565b8015611a105780601f106119e557610100808354040283529160200191611a10565b820191906000526020600020905b8154815290600101906020018083116119f357829003601f168201915b5050505050828281518110611a2857611a276142a0565b5b6020026020010181905250611a8d6040518060400160405280601781526020017f4e616d6520666f7220746f6b656e20256420697320257300000000000000000081525082848481518110611a8057611a7f6142a0565b5b6020026020010151612902565b8080611a98906142fe565b915050611968565b508091505090565b600080611af884848080601f016020809104026020016040519081016040528093929190818152602001838380828437600081840152601f19601f82011690508083019250505050505050612059565b905060008111611b0757600080fd5b60038103611b20576706f05b59d3b20000915050611b46565b60048103611b3957670429d069189e0000915050611b46565b67016345785d8a00009150505b92915050565b611be48282604051602401611b62929190614346565b6040516020818303038152906040527f4b5c4277000000000000000000000000000000000000000000000000000000007bffffffffffffffffffffffffffffffffffffffffffffffffffffffff19166020820180517bffffffffffffffffffffffffffffffffffffffffffffffffffffffff83818316178352505050506129a1565b5050565b60007f01ffc9a7000000000000000000000000000000000000000000000000000000007bffffffffffffffffffffffffffffffffffffffffffffffffffffffff1916827bffffffffffffffffffffffffffffffffffffffffffffffffffffffff1916149050919050565b611c5b816129ca565b611c9a576040517f08c379a0000000000000000000000000000000000000000000000000000000008152600401611c9190613ab7565b60405180910390fd5b50565b600033905090565b816004600083815260200190815260200160002060006101000a81548173ffffffffffffffffffffffffffffffffffffffff021916908373ffffffffffffffffffffffffffffffffffffffff160217905550808273ffffffffffffffffffffffffffffffffffffffff16611d1883610ddc565b73ffffffffffffffffffffffffffffffffffffffff167f8c5be1e5ebec7d5bd14f71427d1e84f3dd0314c0f7b2291e5b200ac8c7c3b92560405160405180910390a45050565b600080611d6a83610ddc565b90508073ffffffffffffffffffffffffffffffffffffffff168473ffffffffffffffffffffffffffffffffffffffff161480611dac5750611dab81856113b8565b5b80611dea57508373ffffffffffffffffffffffffffffffffffffffff16611dd284610859565b73ffffffffffffffffffffffffffffffffffffffff16145b91505092915050565b8273ffffffffffffffffffffffffffffffffffffffff16611e1382610ddc565b73ffffffffffffffffffffffffffffffffffffffff1614611e69576040517f08c379a0000000000000000000000000000000000000000000000000000000008152600401611e60906143ef565b60405180910390fd5b600073ffffffffffffffffffffffffffffffffffffffff168273ffffffffffffffffffffffffffffffffffffffff1603611ed8576040517f08c379a0000000000000000000000000000000000000000000000000000000008152600401611ecf90614481565b60405180910390fd5b611ee3838383612a36565b611eee600082611ca5565b6001600360008573ffffffffffffffffffffffffffffffffffffffff1673ffffffffffffffffffffffffffffffffffffffff1681526020019081526020016000206000828254611f3e91906144a1565b925050819055506001600360008473ffffffffffffffffffffffffffffffffffffffff1673ffffffffffffffffffffffffffffffffffffffff1681526020019081526020016000206000828254611f9591906144d5565b92505081905550816002600083815260200190815260200160002060006101000a81548173ffffffffffffffffffffffffffffffffffffffff021916908373ffffffffffffffffffffffffffffffffffffffff160217905550808273ffffffffffffffffffffffffffffffffffffffff168473ffffffffffffffffffffffffffffffffffffffff167fddf252ad1be2c89b69c2b068fc378daa952ba7f163c4a11628f55a4df523b3ef60405160405180910390a4612054838383612a3b565b505050565b60008060008084519050600092505b80821015612203576000858381518110612085576120846142a0565b5b602001015160f81c60f81b9050608060f81b817effffffffffffffffffffffffffffffffffffffffffffffffffffffffffffff191610156120d4576001836120cd91906144d5565b92506121ef565b60e060f81b817effffffffffffffffffffffffffffffffffffffffffffffffffffffffffffff191610156121165760028361210f91906144d5565b92506121ee565b60f060f81b817effffffffffffffffffffffffffffffffffffffffffffffffffffffffffffff191610156121585760038361215191906144d5565b92506121ed565b60f8801b817effffffffffffffffffffffffffffffffffffffffffffffffffffffffffffff191610156121995760048361219291906144d5565b92506121ec565b60fc60f81b817effffffffffffffffffffffffffffffffffffffffffffffffffffffffffffff191610156121db576005836121d491906144d5565b92506121eb565b6006836121e891906144d5565b92505b5b5b5b5b5082806121fb906142fe565b935050612068565b829350505050919050565b8173ffffffffffffffffffffffffffffffffffffffff168373ffffffffffffffffffffffffffffffffffffffff160361227c576040517f08c379a000000000000000000000000000000000000000000000000000000000815260040161227390614555565b60405180910390fd5b80600560008573ffffffffffffffffffffffffffffffffffffffff1673ffffffffffffffffffffffffffffffffffffffff16815260200190815260200160002060008473ffffffffffffffffffffffffffffffffffffffff1673ffffffffffffffffffffffffffffffffffffffff16815260200190815260200160002060006101000a81548160ff0219169083151502179055508173ffffffffffffffffffffffffffffffffffffffff168373ffffffffffffffffffffffffffffffffffffffff167f17307eab39ab6107e8899845ad3d59bd9653f200f220920489ca2b5937696c318360405161236d9190612ed2565b60405180910390a3505050565b612385848484611df3565b61239184848484612a40565b6123d0576040517f08c379a00000000000000000000000000000000000000000000000000000000081526004016123c7906145e7565b60405180910390fd5b50505050565b606060405180602001604052806000815250905090565b60606123f882611c52565b60006124026123d6565b90506000815111612422576040518060200160405280600081525061244d565b8061242c84612463565b60405160200161243d929190613e21565b6040516020818303038152906040525b915050919050565b600081600001549050919050565b6060600082036124aa576040518060400160405280600181526020017f300000000000000000000000000000000000000000000000000000000000000081525090506125be565b600082905060005b600082146124dc5780806124c5906142fe565b915050600a826124d59190614636565b91506124b2565b60008167ffffffffffffffff8111156124f8576124f76131d4565b5b6040519080825280601f01601f19166020018201604052801561252a5781602001600182028036833780820191505090505b5090505b600085146125b75760018261254391906144a1565b9150600a856125529190614667565b603061255e91906144d5565b60f81b818381518110612574576125736142a0565b5b60200101907effffffffffffffffffffffffffffffffffffffffffffffffffffffffffffff1916908160001a905350600a856125b09190614636565b945061252e565b8093505050505b919050565b61265f848484846040516024016125dd9493929190614698565b6040516020818303038152906040527f8eafb02b000000000000000000000000000000000000000000000000000000007bffffffffffffffffffffffffffffffffffffffffffffffffffffffff19166020820180517bffffffffffffffffffffffffffffffffffffffffffffffffffffffff83818316178352505050506129a1565b50505050565b60606000825103612687576040518060200160405280600081525090506127c3565b6000604051806060016040528060408152602001614b3c60409139905060006003600285516126b691906144d5565b6126c09190614636565b60046126cc91906146f2565b67ffffffffffffffff8111156126e5576126e46131d4565b5b6040519080825280601f01601f1916602001820160405280156127175781602001600182028036833780820191505090505b509050600182016020820185865187015b80821015612783576003820191508151603f8160121c168501518453600184019350603f81600c1c168501518453600184019350603f8160061c168501518453600184019350603f8116850151845360018401935050612728565b505060038651066001811461279f57600281146127b2576127ba565b603d6001830353603d60028303536127ba565b603d60018303535b50505080925050505b919050565b61285e816040516024016127dc9190612f7d565b6040516020818303038152906040527f41304fac000000000000000000000000000000000000000000000000000000007bffffffffffffffffffffffffffffffffffffffffffffffffffffffff19166020820180517bffffffffffffffffffffffffffffffffffffffffffffffffffffffff83818316178352505050506129a1565b50565b61287b828260405180602001604052806000815250612bc7565b5050565b612888826129ca565b6128c7576040517f08c379a00000000000000000000000000000000000000000000000000000000081526004016128be906147a6565b60405180910390fd5b806006600084815260200190815260200160002090816128e791906147c6565b505050565b6001816000016000828254019250508190555050565b61299c83838360405160240161291a93929190614898565b6040516020818303038152906040527f5970e089000000000000000000000000000000000000000000000000000000007bffffffffffffffffffffffffffffffffffffffffffffffffffffffff19166020820180517bffffffffffffffffffffffffffffffffffffffffffffffffffffffff83818316178352505050506129a1565b505050565b60008151905060006a636f6e736f6c652e6c6f679050602083016000808483855afa5050505050565b60008073ffffffffffffffffffffffffffffffffffffffff166002600084815260200190815260200160002060009054906101000a900473ffffffffffffffffffffffffffffffffffffffff1673ffffffffffffffffffffffffffffffffffffffff1614159050919050565b505050565b505050565b6000612a618473ffffffffffffffffffffffffffffffffffffffff16612c22565b15612bba578373ffffffffffffffffffffffffffffffffffffffff1663150b7a02612a8a611c9d565b8786866040518563ffffffff1660e01b8152600401612aac9493929190614932565b6020604051808303816000875af1925050508015612ae857506040513d601f19601f82011682018060405250810190612ae59190614993565b60015b612b6a573d8060008114612b18576040519150601f19603f3d011682016040523d82523d6000602084013e612b1d565b606091505b506000815103612b62576040517f08c379a0000000000000000000000000000000000000000000000000000000008152600401612b59906145e7565b60405180910390fd5b805181602001fd5b63150b7a0260e01b7bffffffffffffffffffffffffffffffffffffffffffffffffffffffff1916817bffffffffffffffffffffffffffffffffffffffffffffffffffffffff191614915050612bbf565b600190505b949350505050565b612bd18383612c45565b612bde6000848484612a40565b612c1d576040517f08c379a0000000000000000000000000000000000000000000000000000000008152600401612c14906145e7565b60405180910390fd5b505050565b6000808273ffffffffffffffffffffffffffffffffffffffff163b119050919050565b600073ffffffffffffffffffffffffffffffffffffffff168273ffffffffffffffffffffffffffffffffffffffff1603612cb4576040517f08c379a0000000000000000000000000000000000000000000000000000000008152600401612cab90614a0c565b60405180910390fd5b612cbd816129ca565b15612cfd576040517f08c379a0000000000000000000000000000000000000000000000000000000008152600401612cf490614a78565b60405180910390fd5b612d0960008383612a36565b6001600360008473ffffffffffffffffffffffffffffffffffffffff1673ffffffffffffffffffffffffffffffffffffffff1681526020019081526020016000206000828254612d5991906144d5565b92505081905550816002600083815260200190815260200160002060006101000a81548173ffffffffffffffffffffffffffffffffffffffff021916908373ffffffffffffffffffffffffffffffffffffffff160217905550808273ffffffffffffffffffffffffffffffffffffffff16600073ffffffffffffffffffffffffffffffffffffffff167fddf252ad1be2c89b69c2b068fc378daa952ba7f163c4a11628f55a4df523b3ef60405160405180910390a4612e1a60008383612a3b565b5050565b6000604051905090565b600080fd5b600080fd5b60007fffffffff0000000000000000000000000000000000000000000000000000000082169050919050565b612e6781612e32565b8114612e7257600080fd5b50565b600081359050612e8481612e5e565b92915050565b600060208284031215612ea057612e9f612e28565b5b6000612eae84828501612e75565b91505092915050565b60008115159050919050565b612ecc81612eb7565b82525050565b6000602082019050612ee76000830184612ec3565b92915050565b600081519050919050565b600082825260208201905092915050565b60005b83811015612f27578082015181840152602081019050612f0c565b60008484015250505050565b6000601f19601f8301169050919050565b6000612f4f82612eed565b612f598185612ef8565b9350612f69818560208601612f09565b612f7281612f33565b840191505092915050565b60006020820190508181036000830152612f978184612f44565b905092915050565b6000819050919050565b612fb281612f9f565b8114612fbd57600080fd5b50565b600081359050612fcf81612fa9565b92915050565b600060208284031215612feb57612fea612e28565b5b6000612ff984828501612fc0565b91505092915050565b600073ffffffffffffffffffffffffffffffffffffffff82169050919050565b600061302d82613002565b9050919050565b61303d81613022565b82525050565b60006020820190506130586000830184613034565b92915050565b61306781613022565b811461307257600080fd5b50565b6000813590506130848161305e565b92915050565b600080604083850312156130a1576130a0612e28565b5b60006130af85828601613075565b92505060206130c085828601612fc0565b9150509250929050565b600080fd5b600080fd5b600080fd5b60008083601f8401126130ef576130ee6130ca565b5b8235905067ffffffffffffffff81111561310c5761310b6130cf565b5b602083019150836001820283011115613128576131276130d4565b5b9250929050565b6000806020838503121561314657613145612e28565b5b600083013567ffffffffffffffff81111561316457613163612e2d565b5b613170858286016130d9565b92509250509250929050565b60008060006060848603121561319557613194612e28565b5b60006131a386828701613075565b93505060206131b486828701613075565b92505060406131c586828701612fc0565b9150509250925092565b600080fd5b7f4e487b7100000000000000000000000000000000000000000000000000000000600052604160045260246000fd5b61320c82612f33565b810181811067ffffffffffffffff8211171561322b5761322a6131d4565b5b80604052505050565b600061323e612e1e565b905061324a8282613203565b919050565b600067ffffffffffffffff82111561326a576132696131d4565b5b61327382612f33565b9050602081019050919050565b82818337600083830152505050565b60006132a261329d8461324f565b613234565b9050828152602081018484840111156132be576132bd6131cf565b5b6132c9848285613280565b509392505050565b600082601f8301126132e6576132e56130ca565b5b81356132f684826020860161328f565b91505092915050565b60006020828403121561331557613314612e28565b5b600082013567ffffffffffffffff81111561333357613332612e2d565b5b61333f848285016132d1565b91505092915050565b60006020828403121561335e5761335d612e28565b5b600061336c84828501613075565b91505092915050565b61337e81612f9f565b82525050565b60006020820190506133996000830184613375565b92915050565b60006133aa82613002565b9050919050565b6133ba8161339f565b82525050565b60006020820190506133d560008301846133b1565b92915050565b6133e481612eb7565b81146133ef57600080fd5b50565b600081359050613401816133db565b92915050565b6000806040838503121561341e5761341d612e28565b5b600061342c85828601613075565b925050602061343d858286016133f2565b9150509250929050565b600067ffffffffffffffff821115613462576134616131d4565b5b61346b82612f33565b9050602081019050919050565b600061348b61348684613447565b613234565b9050828152602081018484840111156134a7576134a66131cf565b5b6134b2848285613280565b509392505050565b600082601f8301126134cf576134ce6130ca565b5b81356134df848260208601613478565b91505092915050565b6000806000806080858703121561350257613501612e28565b5b600061351087828801613075565b945050602061352187828801613075565b935050604061353287828801612fc0565b925050606085013567ffffffffffffffff81111561355357613552612e2d565b5b61355f878288016134ba565b91505092959194509250565b6000806000806040858703121561358557613584612e28565b5b600085013567ffffffffffffffff8111156135a3576135a2612e2d565b5b6135af878288016130d9565b9450945050602085013567ffffffffffffffff8111156135d2576135d1612e2d565b5b6135de878288016130d9565b925092505092959194509250565b6000806040838503121561360357613602612e28565b5b600061361185828601613075565b925050602061362285828601613075565b9150509250929050565b600081519050919050565b600082825260208201905092915050565b6000819050602082019050919050565b600082825260208201905092915050565b600061367482612eed565b61367e8185613658565b935061368e818560208601612f09565b61369781612f33565b840191505092915050565b60006136ae8383613669565b905092915050565b6000602082019050919050565b60006136ce8261362c565b6136d88185613637565b9350836020820285016136ea85613648565b8060005b85811015613726578484038952815161370785826136a2565b9450613712836136b6565b925060208a019950506001810190506136ee565b50829750879550505050505092915050565b6000602082019050818103600083015261375281846136c3565b905092915050565b7f4e487b7100000000000000000000000000000000000000000000000000000000600052602260045260246000fd5b600060028204905060018216806137a157607f821691505b6020821081036137b4576137b361375a565b5b50919050565b7f4552433732313a20617070726f76616c20746f2063757272656e74206f776e6560008201527f7200000000000000000000000000000000000000000000000000000000000000602082015250565b6000613816602183612ef8565b9150613821826137ba565b604082019050919050565b6000602082019050818103600083015261384581613809565b9050919050565b7f4552433732313a20617070726f76652063616c6c6572206973206e6f7420746f60008201527f6b656e206f776e6572206e6f7220617070726f76656420666f7220616c6c0000602082015250565b60006138a8603e83612ef8565b91506138b38261384c565b604082019050919050565b600060208201905081810360008301526138d78161389b565b9050919050565b600081905092915050565b60006138f583856138de565b9350613902838584613280565b82840190509392505050565b600061391b8284866138e9565b91508190509392505050565b7f4552433732313a2063616c6c6572206973206e6f7420746f6b656e206f776e6560008201527f72206e6f7220617070726f766564000000000000000000000000000000000000602082015250565b6000613983602e83612ef8565b915061398e82613927565b604082019050919050565b600060208201905081810360008301526139b281613976565b9050919050565b600081905092915050565b50565b60006139d46000836139b9565b91506139df826139c4565b600082019050919050565b60006139f5826139c7565b9150819050919050565b7f4661696c656420746f2077697468647261770000000000000000000000000000600082015250565b6000613a35601283612ef8565b9150613a40826139ff565b602082019050919050565b60006020820190508181036000830152613a6481613a28565b9050919050565b7f4552433732313a20696e76616c696420746f6b656e2049440000000000000000600082015250565b6000613aa1601883612ef8565b9150613aac82613a6b565b602082019050919050565b60006020820190508181036000830152613ad081613a94565b9050919050565b7f4552433732313a2061646472657373207a65726f206973206e6f74206120766160008201527f6c6964206f776e65720000000000000000000000000000000000000000000000602082015250565b6000613b33602983612ef8565b9150613b3e82613ad7565b604082019050919050565b60006020820190508181036000830152613b6281613b26565b9050919050565b600082905092915050565b60008190508160005260206000209050919050565b60006020601f8301049050919050565b600082821b905092915050565b600060088302613bd67fffffffffffffffffffffffffffffffffffffffffffffffffffffffffffffffff82613b99565b613be08683613b99565b95508019841693508086168417925050509392505050565b6000819050919050565b6000613c1d613c18613c1384612f9f565b613bf8565b612f9f565b9050919050565b6000819050919050565b613c3783613c02565b613c4b613c4382613c24565b848454613ba6565b825550505050565b600090565b613c60613c53565b613c6b818484613c2e565b505050565b5b81811015613c8f57613c84600082613c58565b600181019050613c71565b5050565b601f821115613cd457613ca581613b74565b613cae84613b89565b81016020851015613cbd578190505b613cd1613cc985613b89565b830182613c70565b50505b505050565b600082821c905092915050565b6000613cf760001984600802613cd9565b1980831691505092915050565b6000613d108383613ce6565b9150826002028217905092915050565b613d2a8383613b69565b67ffffffffffffffff811115613d4357613d426131d4565b5b613d4d8254613789565b613d58828285613c93565b6000601f831160018114613d875760008415613d75578287013590505b613d7f8582613d04565b865550613de7565b601f198416613d9586613b74565b60005b82811015613dbd57848901358255600182019150602085019450602081019050613d98565b86831015613dda5784890135613dd6601f891682613ce6565b8355505b6001600288020188555050505b50505050505050565b6000613dfb82612eed565b613e0581856138de565b9350613e15818560208601612f09565b80840191505092915050565b6000613e2d8285613df0565b9150613e398284613df0565b91508190509392505050565b6000613e518385612ef8565b9350613e5e838584613280565b613e6783612f33565b840190509392505050565b60006020820190508181036000830152613e8d818486613e45565b90509392505050565b7f4e6f7420656e6f756768204d4154494320746f2072656769737465722074686960008201527f7320646f6d61696e000000000000000000000000000000000000000000000000602082015250565b6000613ef2602883612ef8565b9150613efd82613e96565b604082019050919050565b60006020820190508181036000830152613f2181613ee5565b9050919050565b7f2e00000000000000000000000000000000000000000000000000000000000000600082015250565b6000613f5e6001836138de565b9150613f6982613f28565b600182019050919050565b60008154613f8181613789565b613f8b81866138de565b94506001821660008114613fa65760018114613fbb57613fee565b60ff1983168652811515820286019350613fee565b613fc485613b74565b60005b83811015613fe657815481890152600182019150602081019050613fc7565b838801955050505b50505092915050565b60006140048285876138e9565b915061400f82613f51565b915061401b8284613f74565b9150819050949350505050565b60006140348286613f74565b91506140408285613df0565b915061404c8284613f74565b9150819050949350505050565b7f7b226e616d65223a202200000000000000000000000000000000000000000000600082015250565b600061408f600a836138de565b915061409a82614059565b600a82019050919050565b7f222c20226465736372697074696f6e223a20224120646f6d61696e206f6e207460008201527f68652054524f4e206e616d652073657276696365222c2022696d616765223a2060208201527f22646174613a696d6167652f7376672b786d6c3b6261736536342c0000000000604082015250565b6000614127605b836138de565b9150614132826140a5565b605b82019050919050565b7f222c20226c656e677468223a2022000000000000000000000000000000000000600082015250565b6000614173600e836138de565b915061417e8261413d565b600e82019050919050565b7f227d000000000000000000000000000000000000000000000000000000000000600082015250565b60006141bf6002836138de565b91506141ca82614189565b600282019050919050565b60006141e082614082565b91506141ec8286613df0565b91506141f78261411a565b91506142038285613df0565b915061420e82614166565b915061421a8284613df0565b9150614225826141b2565b9150819050949350505050565b7f646174613a6170706c69636174696f6e2f6a736f6e3b6261736536342c000000600082015250565b6000614268601d836138de565b915061427382614232565b601d82019050919050565b60006142898261425b565b91506142958284613df0565b915081905092915050565b7f4e487b7100000000000000000000000000000000000000000000000000000000600052603260045260246000fd5b7f4e487b7100000000000000000000000000000000000000000000000000000000600052601160045260246000fd5b600061430982612f9f565b91507fffffffffffffffffffffffffffffffffffffffffffffffffffffffffffffffff820361433b5761433a6142cf565b5b600182019050919050565b600060408201905081810360008301526143608185612f44565b905081810360208301526143748184612f44565b90509392505050565b7f4552433732313a207472616e736665722066726f6d20696e636f72726563742060008201527f6f776e6572000000000000000000000000000000000000000000000000000000602082015250565b60006143d9602583612ef8565b91506143e48261437d565b604082019050919050565b60006020820190508181036000830152614408816143cc565b9050919050565b7f4552433732313a207472616e7366657220746f20746865207a65726f2061646460008201527f7265737300000000000000000000000000000000000000000000000000000000602082015250565b600061446b602483612ef8565b91506144768261440f565b604082019050919050565b6000602082019050818103600083015261449a8161445e565b9050919050565b60006144ac82612f9f565b91506144b783612f9f565b92508282039050818111156144cf576144ce6142cf565b5b92915050565b60006144e082612f9f565b91506144eb83612f9f565b9250828201905080821115614503576145026142cf565b5b92915050565b7f4552433732313a20617070726f766520746f2063616c6c657200000000000000600082015250565b600061453f601983612ef8565b915061454a82614509565b602082019050919050565b6000602082019050818103600083015261456e81614532565b9050919050565b7f4552433732313a207472616e7366657220746f206e6f6e20455243373231526560008201527f63656976657220696d706c656d656e7465720000000000000000000000000000602082015250565b60006145d1603283612ef8565b91506145dc82614575565b604082019050919050565b60006020820190508181036000830152614600816145c4565b9050919050565b7f4e487b7100000000000000000000000000000000000000000000000000000000600052601260045260246000fd5b600061464182612f9f565b915061464c83612f9f565b92508261465c5761465b614607565b5b828204905092915050565b600061467282612f9f565b915061467d83612f9f565b92508261468d5761468c614607565b5b828206905092915050565b600060808201905081810360008301526146b28187612f44565b905081810360208301526146c68186612f44565b905081810360408301526146da8185612f44565b90506146e96060830184613375565b95945050505050565b60006146fd82612f9f565b915061470883612f9f565b925082820261471681612f9f565b9150828204841483151761472d5761472c6142cf565b5b5092915050565b7f45524337323155524953746f726167653a2055524920736574206f66206e6f6e60008201527f6578697374656e7420746f6b656e000000000000000000000000000000000000602082015250565b6000614790602e83612ef8565b915061479b82614734565b604082019050919050565b600060208201905081810360008301526147bf81614783565b9050919050565b6147cf82612eed565b67ffffffffffffffff8111156147e8576147e76131d4565b5b6147f28254613789565b6147fd828285613c93565b600060209050601f831160018114614830576000841561481e578287015190505b6148288582613d04565b865550614890565b601f19841661483e86613b74565b60005b8281101561486657848901518255600182019150602085019450602081019050614841565b86831015614883578489015161487f601f891682613ce6565b8355505b6001600288020188555050505b505050505050565b600060608201905081810360008301526148b28186612f44565b90506148c16020830185613375565b81810360408301526148d38184612f44565b9050949350505050565b600081519050919050565b600082825260208201905092915050565b6000614904826148dd565b61490e81856148e8565b935061491e818560208601612f09565b61492781612f33565b840191505092915050565b60006080820190506149476000830187613034565b6149546020830186613034565b6149616040830185613375565b818103606083015261497381846148f9565b905095945050505050565b60008151905061498d81612e5e565b92915050565b6000602082840312156149a9576149a8612e28565b5b60006149b78482850161497e565b91505092915050565b7f4552433732313a206d696e7420746f20746865207a65726f2061646472657373600082015250565b60006149f6602083612ef8565b9150614a01826149c0565b602082019050919050565b60006020820190508181036000830152614a25816149e9565b9050919050565b7f4552433732313a20746f6b656e20616c7265616479206d696e74656400000000600082015250565b6000614a62601c83612ef8565b9150614a6d82614a2c565b602082019050919050565b60006020820190508181036000830152614a9181614a55565b905091905056fe0a2d2d2d2d2d2d2d2d2d2d2d2d2d2d2d2d2d2d2d2d2d2d2d2d2d2d2d2d2d2d2d2d2d2d2d2d2d2d2d2d2d2d2d2d2d2d2d2d2d2d2d2d2d2d2d2d5265676973746572696e672025732e2573206f6e2074686520636f6e7472616374207769746820746f6b656e49442025642d2d2d2d2d2d2d2d2d2d2d2d2d2d2d2d2d2d2d2d2d2d2d2d2d2d2d2d2d2d2d2d2d2d2d2d2d2d2d2d2d2d2d2d2d2d2d2d2d2d2d2d2d2d2d2d0a4142434445464748494a4b4c4d4e4f505152535455565758595a6162636465666768696a6b6c6d6e6f707172737475767778797a303132333435363738392b2fa2646970667358221220ca6a056894aa6f565141e2574e0fa9d7e3742b5129c38c109c1d2084ffeaf3b564736f6c634300081100333c73766720786d6c6e733d22687474703a2f2f7777772e77332e6f72672f323030302f737667222077696474683d2232373022206865696768743d22323730222066696c6c3d226e6f6e65223e3c706174682066696c6c3d2275726c282342292220643d224d302030683237307632373048307a222f3e3c646566733e3c66696c7465722069643d22412220636f6c6f722d696e746572706f6c6174696f6e2d66696c746572733d2273524742222066696c746572556e6974733d227573657253706163654f6e55736522206865696768743d22323730222077696474683d22323730223e3c666544726f70536861646f772064783d2230222064793d22312220737464446576696174696f6e3d22322220666c6f6f642d6f7061636974793d222e323235222077696474683d223230302522206865696768743d2232303025222f3e3c2f66696c7465723e3c2f646566733e3c7061746820643d224d37322e3836332034322e393439632d2e3636382d2e3338372d312e3432362d2e35392d322e3139372d2e3539732d312e3532392e3230342d322e3139372e35396c2d31302e30383120362e3033322d362e383520332e3933342d31302e30383120362e303332632d2e3636382e3338372d312e3432362e35392d322e3139372e3539732d312e3532392d2e3230342d322e3139372d2e35396c2d382e3031332d342e37323161342e353220342e35322030203020312d312e3538392d312e363136632d2e3338342d2e3636352d2e3539342d312e3431382d2e3630382d322e313837762d392e3331632d2e3031332d2e3737352e3138352d312e3533382e3537322d322e32303861342e323520342e323520302030203120312e3632352d312e3539356c372e3838342d342e3539632e3636382d2e33383720312e3432362d2e353920322e3139372d2e353973312e3532392e32303420322e3139372e35396c372e38383420342e353961342e353220342e353220302030203120312e35383920312e363136632e3338342e3636352e35393420312e3431382e36303820322e31383776362e3033326c362e38352d342e303635762d362e303332632e3031332d2e3737352d2e3138352d312e3533382d2e3537322d322e32303861342e323520342e32352030203020302d312e3632352d312e3539354c34312e3435362032342e3539632d2e3636382d2e3338372d312e3432362d2e35392d322e3139372d2e3539732d312e3532392e3230342d322e3139372e35396c2d31342e38363420382e36353561342e323520342e32352030203020302d312e36323520312e353935632d2e3338372e36372d2e35383520312e3433342d2e35373220322e3230387631372e343431632d2e3031332e3737352e31383520312e3533382e35373220322e32303861342e323520342e323520302030203020312e36323520312e3539356c31342e38363420382e363535632e3636382e33383720312e3432362e353920322e3139372e353973312e3532392d2e32303420322e3139372d2e35396c31302e3038312d352e39303120362e38352d342e3036352031302e3038312d352e393031632e3636382d2e33383720312e3432362d2e353920322e3139372d2e353973312e3532392e32303420322e3139372e35396c372e38383420342e353961342e353220342e353220302030203120312e35383920312e363136632e3338342e3636352e35393420312e3431382e36303820322e31383776392e333131632e3031332e3737352d2e31383520312e3533382d2e35373220322e32303861342e323520342e32352030203020312d312e36323520312e3539356c2d372e38383420342e373231632d2e3636382e3338372d312e3432362e35392d322e3139372e3539732d312e3532392d2e3230342d322e3139372d2e35396c2d372e3838342d342e353961342e353220342e35322030203020312d312e3538392d312e363136632d2e3338352d2e3636352d2e3539342d312e3431382d2e3630382d322e313837762d362e3033326c2d362e383520342e30363576362e303332632d2e3031332e3737352e31383520312e3533382e35373220322e32303861342e323520342e323520302030203020312e36323520312e3539356c31342e38363420382e363535632e3636382e33383720312e3432362e353920322e3139372e353973312e3532392d2e32303420322e3139372d2e35396c31342e3836342d382e363535632e3635372d2e33393420312e3230342d2e393520312e3538392d312e363136732e3539342d312e3431382e3630392d322e3138375635352e353338632e3031332d2e3737352d2e3138352d312e3533382d2e3537322d322e32303861342e323520342e32352030203020302d312e3632352d312e3539356c2d31342e3939332d382e3738367a222066696c6c3d2223666666222f3e3c646566733e3c6c696e6561724772616469656e742069643d2242222078313d2230222079313d2230222078323d22323730222079323d2232373022206772616469656e74556e6974733d227573657253706163654f6e557365223e3c73746f702073746f702d636f6c6f723d2223636235656565222f3e3c73746f70206f66667365743d2231222073746f702d636f6c6f723d2223306364376534222073746f702d6f7061636974793d222e3939222f3e3c2f6c696e6561724772616469656e743e3c2f646566733e3c7465787420783d2233322e352220793d223233312220666f6e742d73697a653d223237222066696c6c3d2223666666222066696c7465723d2275726c282341292220666f6e742d66616d696c793d22506c7573204a616b617274612053616e732c44656a6156752053616e732c4e6f746f20436f6c6f7220456d6f6a692c4170706c6520436f6c6f7220456d6f6a692c73616e732d73657269662220666f6e742d7765696768743d22626f6c64223e",
  "linkReferences": {},
  "deployedLinkReferences": {}
}